:100000000C942A000C9494030C94AB030C94E4031A
:100010000C9447000C9447000C9447000C94470044
:100020000C9447000C9447000C9447000C94470034
:100030000C9447000C9447000C9447000C94470024
:100040000C9447000C9447000C9447000C94470014
:100050000C94470011241FBECFE5D8E0DEBFCDBF12
:1000600010E0A0E6B0E0E0E0FFE002C005900D92F5
:10007000A03AB107D9F710E0A0EAB0E001C01D92A4
:10008000A83AB107E1F70E94F2030C947E070C94A2
:100090000000672B09F09FC0009711F4D8980895CD
:1000A0008130910511F4D99808958230910511F4A9
:1000B000DA9808958330910511F4DB98089584301F
:1000C000910511F4DC9808958530910511F4DD98BF
:1000D00008958630910511F4DE98089587309105D2
:1000E00011F4DF9808958A30910511F4C0980895AD
:1000F0008B30910511F4C19808958C30910511F45D
:10010000C29808958D30910511F4C39808958E30EA
:10011000910511F4C49808958F30910511F4C59894
:1001200008958031910511F4C698089581319105A3
:1001300011F4C79808958431910511F4A898089591
:100140008531910511F4A99808958631910511F42E
:10015000AA9808958731910511F4AB9808958831D4
:10016000910511F4AC9808958931910511F4AD9879
:1001700008958A31910511F4AE9808958B31910557
:1001800011F4AF9808958E31910511F49098089567
:100190008F31910511F4919808958032910511F4F1
:1001A000929808958132910511F4939808958232BE
:1001B000910511F4949808958332910511F495985E
:1001C00008958432910511F496980895859709F061
:1001D0009FC097980895009711F4D89A0895813098
:1001E000910511F4D99A08958230910511F4DA9AA3
:1001F00008958330910511F4DB9A089584309105B8
:1002000011F4DC9A08958530910511F4DD9A089572
:100210008630910511F4DE9A08958730910511F426
:10022000DF9A08958A30910511F4C09A08958B30B1
:10023000910511F4C19A08958C30910511F4C29A78
:1002400008958D30910511F4C39A08958E3091056B
:1002500011F4C49A08958F30910511F4C59A089548
:100260008031910511F4C69A08958131910511F4F8
:10027000C79A08958431910511F4A89A089585319B
:10028000910511F4A99A08958631910511F4AA9A5D
:1002900008958731910511F4AB9A0895883191053D
:1002A00011F4AC9A08958931910511F4AD9A08952D
:1002B0008A31910511F4AE9A08958B31910511F4AC
:1002C000AF9A08958E31910511F4909A08958F3167
:1002D000910511F4919A08958032910511F4929A42
:1002E00008958132910511F4939A0895823291050F
:1002F00011F4949A08958332910511F4959A089512
:100300008432910511F4969A0895859709F4979A85
:1003100008950F931F93082F182F80FF05C080E0CA
:1003200090E061E070E004C080E090E060E070E0A8
:100330000E94490011FF05C081E090E061E070E09B
:1003400004C081E090E060E070E00E94490012FF8C
:1003500005C082E090E061E070E004C082E090E0DF
:1003600060E070E00E94490013FF05C083E090E068
:1003700061E070E004C083E090E060E070E00E9423
:10038000490014FF05C082E290E061E070E004C023
:1003900082E290E060E070E00E94490015FF05C035
:1003A00083E290E061E070E004C083E290E060E00E
:1003B00070E00E94490016FF05C084E290E061E011
:1003C00070E004C084E290E060E070E00E944900C8
:1003D00007FF05C085E290E061E070E004C085E2BF
:1003E00090E060E070E00E9449001F910F91089535
:1003F0000F931F93182F84E190E060E070E00E945B
:100400004900812F0E94890185E190E061E070E060
:100410000E94490000ED17E0C8010197F1F785E15E
:1004200090E060E070E00E944900C8010197F1F798
:100430001F910F91089581E00E94F8010895813085
:1004400029F4862F80580E94F8010895823021F403
:10045000862F80540E94F801089584E190E060E0C6
:1004600070E00E94490085E190E060E070E00E9449
:10047000490080E49CE90197F1F780E30E94F801CC
:1004800080E197E20197F1F780E30E94F80180EDA7
:1004900097E00197F1F780E30E94F80180E29EE483
:1004A0000197F1F788E30E94F8018CE00E94F801BF
:1004B00081E00E94F80186E00E94F80108950F9300
:1004C0001F93182F84E190E061E070E00E944900E2
:1004D000812F0E94890185E190E061E070E00E9437
:1004E000490000ED17E0C8010197F1F785E190E0C0
:1004F00060E070E00E944900C8010197F1F71F9188
:100500000F910895CF93DF93EC0102C00E945F0228
:1005100089918823D9F7DF91CF9108958CE10E94CA
:10052000F801089588E10E94F8010895CF93DF93C0
:10053000C82F80FF05C082E290E061E070E004C057
:1005400082E290E060E070E00E944900C1FF05C0D7
:1005500083E290E061E070E004C083E290E060E05C
:1005600070E00E944900C2FF05C084E290E061E0B3
:1005700070E004C084E290E060E070E00E94490016
:10058000C3FF05C085E290E061E070E004C085E251
:1005900090E060E070E00E944900DF91CF91089503
:1005A0000F931F93182F84E190E060E070E00E94A9
:1005B0004900812F0E94960285E190E061E070E0A1
:1005C0000E94490000ED17E0C8010197F1F785E1AD
:1005D00090E060E070E00E944900C8010197F1F7E7
:1005E0001F910F91089580E00E94D00281E00E9447
:1005F000D00208951F93813019F4162F105804C0AB
:10060000823059F4162F1054812F82958F700E94DA
:10061000D002812F8F700E94D0021F91089580E038
:100620000E94960280E49CE90197F1F783E00E9422
:10063000D00280E197E20197F1F783E00E94D002B7
:1006400080EF95E50197F1F783E00E94D00282E008
:100650000E94D00282E00E94D00288E00E94D00274
:1006600080E00E94D0028CE00E94D00280E00E94D4
:10067000D00286E00E94D0020895FF920F931F934C
:10068000F82E84E190E061E070E00E9449008F2D37
:1006900082958F700E94960285E190E061E070E0A3
:1006A0000E94490000ED17E0C8010197F1F785E1CC
:1006B00090E060E070E00E944900C8010197F1F706
:1006C0008F2D8F700E94960285E190E061E070E0CE
:1006D0000E944900C8010197F1F785E190E060E0D0
:1006E00070E00E944900C8010197F1F71F910F9136
:1006F000FF900895CF93DF93EC0102C00E943D0369
:1007000089918823D9F7DF91CF91089581E00E94E4
:10071000D0028CE00E94D002089581E00E94D002B5
:1007200088E00E94D00208951F920F920FB60F9298
:1007300011248F939F938091A4009091A50001961E
:100740009093A5008093A4009F918F910F900FBE6E
:100750000F901F9018951F920F920FB60F921124B1
:100760002F933F938F939F932091A0003091A100EE
:100770002115310559F481E090E09093A100809318
:10078000A0009093A3008093A20011C021303105F6
:1007900091F48091A2009091A300892B61F4309391
:1007A000A1002093A0003093A3002093A2001092F8
:1007B000A5001092A4009F918F913F912F910F90CF
:1007C0000FBE0F901F9018951F920F920FB60F92A9
:1007D00011241092A3001092A2000F900FBE0F9050
:1007E0001F901895CF92DF92EF92FF920F931F9375
:1007F000DF93CF93CDB7DEB72A970FB6F894DEBF5D
:100800000FBECDBF8FEF84BB17BA80EF81BB85B71A
:100810008A6085BF80EE8BBF78940E940F038E01A3
:100820000F5F1F4F98E7E92E90E0F92E88ECC82E55
:10083000D12C8091A0009091A100009799F481E0C3
:1008400064E00E94FA0280E690E00E947A0382E06F
:1008500062E00E94FA028AE690E00E947A030E9417
:10086000F302E7CF019729F78091A2009091A300AE
:100870008130910551F500D000D000D0EDB7FEB722
:100880003196ADB7BEB712961C930E931197F382B3
:10089000E2828091A4009091A500958384830E94B8
:1008A000A6048DB79EB706960FB6F8949EBF0FBEEE
:1008B0008DBF81E061E00E94FA028BE790E00E9428
:1008C0007A03C8010E947A03B4CF892B09F0B1CF13
:1008D00000D000D000D0EDB7FEB73196ADB7BEB7AF
:1008E00012961C930E931197F382E2828091A400DA
:1008F0009091A500958384830E94A6048DB79EB72E
:1009000006960FB6F8949EBF0FBE8DBF81E061E0E2
:100910000E94FA0283E890E00E947A03C8010E94D4
:100920007A0382E061E00E94FA0280E990E00E948E
:100930007A030E94F30284E085BB88EE93E0F6011F
:100940003197F1F70197D9F715BA73CFAEE0B0E060
:10095000ECEAF4E00C9455070D891E8986E08C833F
:100960001A8309838FEF9FE79E838D839E01275E05
:100970003F4FCE0101966F89788DA9010E94CA046C
:100980002F813885020F131FF80110822E96E4E0A4
:100990000C947107ABE0B0E0E0EDF4E00C94470795
:1009A0003C012B015A01FC0117821682838181FDD3
:1009B00003C06FEF7FEFC6C19AE0892E1E01089435
:1009C000211C311CF3012381F20123FD859123FFBA
:1009D00081912F01882309F4B2C1853239F423FDB6
:1009E000859123FF81912F01853229F490E0B30195
:1009F0000E94BD06E7CF982FFF24EE249924FFE143
:100A0000FF15D0F09B3269F09C3228F4903259F0F7
:100A1000933291F40EC09D3249F0903369F441E075
:100A200024C052E0F52A84E0F82A28C098E0F92A88
:100A300025C0E0E1FE2A22C0F7FC29C0892F80539F
:100A40008A3070F4F6FE05C0989C902C1124980E04
:100A500015C0E89CE02C1124E80EF0E2FF2A0EC03D
:100A60009E3229F4F6FC6BC140E4F42A07C09C36A0
:100A700019F450E8F52A02C0983649F4F20123FD32
:100A8000959123FF91912F01992309F0B8CF892FD8
:100A90008554833018F08052833038F444E050E0BD
:100AA000A40EB51E5FE359830FC0933631F0933720
:100AB00079F0933509F056C020C0F5018081898313
:100AC00042E050E0A40EB51E610101E010E012C04A
:100AD000F501C080D180F6FC03C06FEF7FEF02C04C
:100AE000692D70E042E050E0A40EB51EC6010E94E0
:100AF000B2068C015FE7F52214C0F501C080D180F9
:100B0000F6FC03C06FEF7FEF02C0692D70E042E09A
:100B100050E0A40EB51EC6010E94A7068C0150E845
:100B2000F52AF3FE07C01AC080E290E0B3010E94EC
:100B3000BD06EA948E2D90E008171907A8F30EC0A1
:100B4000F601F7FC8591F7FE81916F0190E0B3010A
:100B50000E94BD06E110EA940150104001151105F4
:100B600079F7EAC0943611F0993669F5F7FE08C0B6
:100B7000F501208131814281538184E090E00AC0F7
:100B8000F501808191819C01442737FD4095542FC8
:100B900082E090E0A80EB91E9FE6F92257FF09C037
:100BA00050954095309521953F4F4F4F5F4FE0E86E
:100BB000FE2ACA01B901A1012AE030E00E94E9063B
:100BC000D82ED21840C0953729F41F2D1F7E2AE059
:100BD00030E01DC01F2D197F9F3661F0903720F443
:100BE000983509F0ACC00FC0903739F0983709F04C
:100BF000A6C004C028E030E00AC0106114FD1460F3
:100C000020E130E004C014FD166020E132E017FF5F
:100C100008C0F501608171818281938144E050E0D8
:100C200008C0F50180819181BC0180E090E042E044
:100C300050E0A40EB51EA1010E94E906D82ED218DC
:100C40008FE7F82EF122F6FE0BC05EEFF522D914E5
:100C500038F4F4FE07C0F2FC05C08FEEF82202C0A3
:100C60001D2D01C0192DF4FE0DC0FE01ED0DF11D6D
:100C70008081803319F499EEF92208C01F5FF2FEDB
:100C800005C003C08F2D867809F01F5F0F2DF3FC80
:100C900014C0F0FE0FC01E1510F09D2C0BC09D2C33
:100CA0009E0C911A1E2D06C080E290E0B3010E94B6
:100CB000BD061F5F1E15C0F304C01E1510F4E11A17
:100CC00001C0EE2404FF0FC080E390E0B3010E9456
:100CD000BD0602FF1DC001FD03C088E790E00EC005
:100CE00088E590E00BC0802F867891F001FF02C06C
:100CF0008BE201C080E2F7FC8DE290E0B3010E943C
:100D0000BD0606C080E390E0B3010E94BD069A9440
:100D1000D914C0F3DA94F101ED0DF11D808190E05A
:100D2000B3010E94BD06DD20A9F706C080E290E075
:100D3000B3010E94BD06EA94EE20C1F743CEF30151
:100D400066817781CB012B96E2E10C946307FC016D
:100D50000590615070400110D8F7809590958E0FE6
:100D60009F1F0895FC016150704001900110D8F759
:100D7000809590958E0F9F1F08950F931F93CF938B
:100D8000DF938C01EB018B8181FF1BC082FF0DC0C3
:100D90002E813F818C819D812817390764F4E88179
:100DA000F9810193F983E88306C0E885F985802FEE
:100DB0000995892B31F48E819F8101969F838E83C3
:100DC00002C00FEF1FEFC801DF91CF911F910F916C
:100DD0000895FA01AA27283051F1203181F1E894D1
:100DE0006F936E7F6E5F7F4F8F4F9F4FAF4FB1E01E
:100DF0003ED0B4E03CD0670F781F891F9A1FA11D19
:100E0000680F791F8A1F911DA11D6A0F711D811D19
:100E1000911DA11D20D009F468943F912AE0269FDE
:100E200011243019305D3193DEF6CF010895462F3D
:100E30004770405D4193B3E00FD0C9F7F6CF462F1E
:100E40004F70405D4A3318F0495D31FD4052419387
:100E500002D0A9F7EACFB4E0A69597958795779544
:100E60006795BA95C9F700976105710508959B01CB
:100E7000AC010A2E06945795479537952795BA9554
:100E8000C9F7620F731F841F951FA01D08952F922D
:100E90003F924F925F926F927F928F929F92AF920A
:100EA000BF92CF92DF92EF92FF920F931F93CF9357
:100EB000DF93CDB7DEB7CA1BDB0B0FB6F894DEBFEE
:100EC0000FBECDBF09942A88398848885F846E8414
:100ED0007D848C849B84AA84B984C884DF80EE805E
:100EE000FD800C811B81AA81B981CE0FD11D0FB667
:100EF000F894DEBF0FBECDBFED010895F894FFCF8B
:100F00004849205445545249530047414D452053C8
:100F1000544152542E2E2E0025640053434F524507
:100F20003A2000594F55522053434F52453A200022
:100F3000535441525420414741494E2E2E2E000019
:00000001FF
