:100000000C942A000C94880B0C94EF0B0C94560C57
:100010000C9447000C9447000C9447000C94470044
:100020000C9447000C9447000C9447000C94470034
:100030000C9447000C9447000C9447000C94470024
:100040000C9447000C9447000C9447000C94470014
:100050000C94470011241FBECFE5D8E0DEBFCDBF12
:1000600010E0A0E6B0E0ECE5FDE102C005900D92E5
:10007000AC38B107D9F712E0ACE8B0E001C01D928E
:10008000AC3FB107E1F70E942D0D0C94AC0E0C941F
:100090000000FC0123E0EE0FFF1F2A95E1F7E80FB7
:1000A000F91FE60FF71FEE0FFF1FE653FE4F81E02B
:1000B00090E0918380830895CF93DF93A0E0B0E038
:1000C00041E050E0BC01E3E0660F771FEA95E1F7FD
:1000D000680F791FC8E0D0E0FB01E40FF51FEE0FB9
:1000E000FF1FE653FE4F808191819E01241B350B3B
:1000F00002C0880F991F2A95E2F7A82BB92B4F5FF2
:100100005F4F4930510541F7CD01DF91CF910895FF
:10011000BC0140E050E021E030E0F901B3E0EE0F37
:10012000FF1FBA95E1F7E20FF31FE60FF71FEE0F7F
:10013000FF1FE653FE4F8081918121503040022EF7
:1001400002C0880F991F0A94E2F7482B592B2E5FA3
:100150003F4F2930310509F7CA0108950F931F93C6
:10016000CF93DF93FC018B0180918C0090918D00E7
:1001700080FD45C0E131F1050CF09FC06230710592
:100180000CF49BC0683071050CF097C09F0143E0F0
:10019000220F331F4A95E1F72E0F3F1FE901C60FCB
:1001A000D71FCC0FDD1FC653DE4F88819981892B65
:1001B00009F083C0DB011197A20FB31FAA0FBB1F69
:1001C000A653BE4F8D919C911197892B09F075C054
:1001D000FB013196E20FF31FEE0FFF1FE653FE4FB8
:1001E00080819181892B09F068C081E090E099833A
:1001F000888311969C938E93918380835BC08091BA
:100200008C0090918D0062E070E00E948A0D9C014C
:100210008130910509F051C0E031F1050CF04DC07D
:10022000101611060CF049C0093011050CF045C03C
:10023000EF01A3E0CC0FDD1FAA95E1F7CE0FDF1F82
:10024000C00FD11FCC0FDD1FC653DE4F88819981AF
:10025000892B99F5CF010197DC0163E0AA0FBB1F41
:100260006A95E1F7A80FB91FA00FB11FAA0FBB1F16
:10027000A653BE4F8D919C911197892BF1F4CF011C
:100280000196FC0143E0EE0FFF1F4A95E1F7E80FEE
:10029000F91FE00FF11FEE0FFF1FE653FE4F8081A5
:1002A0009181892B51F43983288311963C932E93A5
:1002B0003183208321E030E002C020E030E0C9013A
:1002C000DF91CF911F910F9108950F931F93CF93BB
:1002D000DF93FC01813191050CF05DC01616170605
:1002E0000CF059C0683071050CF055C09C0143E01A
:1002F000220F331F4A95E1F7280F391FA901460F36
:10030000571F440F551F46535E4FDA018D919C9144
:10031000892B09F040C08B010F5F1F4FD901A00F3F
:10032000B11FAA0FBB1FA653BE4F8D919C91119771
:10033000892B89F5CF0101979C01E3E0220F331F40
:10034000EA95E1F7280F391F620F731F660F771FB9
:1003500066537E4FEB0188819981892BE1F4F90185
:10036000E00FF11FEE0FFF1FE653FE4F80819181DA
:10037000892B89F481E090E0EA01998388831196C2
:100380009C938E93DB0111969C938E939183808333
:1003900021E030E002C020E030E0C901DF91CF91E0
:1003A0001F910F910895CF92DF92EF92FF920F93DA
:1003B0001F93CF93DF937C018B0180918C009091F0
:1003C0008D0083709070892B09F060C081E1E81680
:1003D000F1040CF0F5C1623071050CF4F1C1683024
:1003E00071050CF0EDC1970173E0220F331F7A9570
:1003F000E1F72E0D3F1DA901400F511F440F551F5E
:1004000046535E4FDA018D919C911197892B09F02B
:10041000D7C1E8012197C20FD31FCC0FDD1FC653F0
:10042000DE4F88819981892B09F0CAC1B8016F5FBD
:100430007F4F620F731F660F771F66537E4FFB015E
:1004400080819181892B09F0BBC1C7010197FC0113
:1004500023E0EE0FFF1F2A95E1F7E80FF91FE00FE9
:10046000F11FEE0FFF1FE653FE4F80819181892B14
:1004700009F0A6C181E090E011969C938E93998338
:100480008883DB0111969C938E9309C180918C0027
:1004900090918D0064E070E00E948A0DBC01813073
:1004A000910509F06BC0B0E1EB16F1040CF088C1C6
:1004B000101611060CF084C1083011050CF080C133
:1004C000970183E0220F331F8A95E1F72E0D3F1D20
:1004D000A901400F511F440F551F46535E4FFA01AB
:1004E00080819181892B09F06BC1C7010197EC01D3
:1004F000A3E0CC0FDD1FAA95E1F7C80FD91FC00FED
:10050000D11FCC0FDD1FC653DE4F88819981892B07
:1005100009F056C168010894C11CD11CC20ED31E3B
:10052000CC0CDD1C8AEC91E0C80ED91ED6018D9151
:100530009C91892B09F044C1C7010196FC0133E06D
:10054000EE0FFF1F3A95E1F7E80FF91FE00FF11FDB
:10055000EE0FFF1FE653FE4F80819181892B09F03A
:100560002FC1DA0111967C936E9379836883D6014B
:1005700011967C936E93718360831FC180918C0070
:1005800090918D0064E070E00E948A0D029709F05E
:1005900089C0B0E1EB16F1040CF012C10230110574
:1005A0000CF40EC1083011050CF00AC1970193E05C
:1005B000220F331F9A95E1F72E0D3F1DF901E00F31
:1005C000F11FEE0FFF1FE653FE4F80819181892BB3
:1005D00009F0F6C0E8012197F901EC0FFD1FEE0FBD
:1005E000FF1FE653FE4F80819181892B09F0E8C0FF
:1005F000A8014F5F5F4FF901E40FF51FEE0FFF1FDA
:10060000E653FE4F80819181892B09F0D9C0970173
:100610002F5F3F4FF90173E0EE0FFF1F7A95E1F76F
:10062000E20FF31FE00FF11FEE0FFF1FE653FE4F27
:1006300080819181892B09F0C3C0D70193E0AA0F73
:10064000BB1F9A95E1F7AE0DBF1DFD01E00FF11F35
:10065000EE0FFF1FE653FE4F81E090E09183808311
:10066000CA0FDB1FCC0FDD1FC653DE4F9983888373
:10067000A40FB51FAA0FBB1FA653BE4F11969C9384
:100680008E93F90163E0EE0FFF1F6A95E1F7E20F29
:10069000F31FE00FF11FEE0FFF1FE653FE4F918394
:1006A00080838BC080918C0090918D0064E070E01D
:1006B0000E948A0D039709F083C0E0E1EE16F10471
:1006C0000CF07EC0023011050CF47AC0093011051F
:1006D0000CF076C0970143E0220F331F4A95E1F7F3
:1006E0002E0D3F1DF901E00FF11FEE0FFF1FE65326
:1006F000FE4F80819181892B09F062C0A701415092
:100700005040FA0183E0EE0FFF1F8A95E1F7E40FF6
:10071000F51FE00FF11FEE0FFF1FE653FE4F808124
:100720009181892B09F04CC0B80161507040F901EA
:10073000E60FF71FEE0FFF1FE653FE4F80819181FA
:10074000892BF1F5C7010196EC01F3E0CC0FDD1F19
:10075000FA95E1F7C80FD91FC00FD11FCC0FDD1FCD
:10076000C653DE4F88819981892B51F5D901F90152
:10077000E00FF11FEE0FFF1FE653FE4F81E090E008
:1007800091838083FA0123E0EE0FFF1F2A95E1F7A2
:10079000E40FF51FE00FF11FEE0FFF1FE653FE4FB2
:1007A00091838083A60FB71FAA0FBB1FA653BE4F0E
:1007B00011969C938E939983888321E030E002C048
:1007C00020E030E0C901DF91CF911F910F91FF90A0
:1007D000EF90DF90CF900895CF92DF92EF92FF924B
:1007E0000F931F93CF93DF937C018B0180918C003B
:1007F00090918D0083709070892B09F064C081E125
:10080000E816F1040CF0F5C1161617060CF0F1C14C
:10081000683071050CF0EDC1970173E0220F331FB2
:100820007A95E1F72E0D3F1DA901400F511F440F8E
:10083000551F46535E4FEA0188819981892B09F043
:10084000D8C1B8016F5F7F4F620F731F660F771FAC
:1008500066537E4FFB0180819181892B09F0C9C1CC
:10086000C7010197FC0143E0EE0FFF1F4A95E1F736
:10087000E80FF91FE00FF11FEE0FFF1FE653FE4FC9
:1008800080819181892B09F0B4C1C7010297DC01F5
:1008900023E0AA0FBB1F2A95E1F7A80FB91FA00FED
:1008A000B11FAA0FBB1FA653BE4F8D919C911197EC
:1008B000892B09F09EC181E090E099838883EB0148
:1008C000998388838EC180918C0090918D0064E023
:1008D00070E00E948A0DBC018130910509F064C06E
:1008E000E0E1EE16F1040CF084C1101611060CF0D4
:1008F00080C1073011050CF07CC1970143E0220F45
:10090000331F4A95E1F72E0D3F1DA901400F511FDE
:10091000440F551F46535E4FEA0188819981892B08
:1009200009F067C1E8012196C20FD31FCC0FDD1F6C
:10093000C653DE4F88819981892B09F05AC1B2E0F4
:10094000CB2ED12CC00ED11EC20ED31ECC0CDD1C62
:10095000EAECF1E0CE0EDF1EF60180819181892B59
:1009600009F047C1C7010196DC01F3E0AA0FBB1FE4
:10097000FA95E1F7A80FB91FA00FB11FAA0FBB1F6F
:10098000A653BE4F8D919C911197892B09F031C1CF
:10099000FA017183608379836883E60179836883D0
:1009A00011967C936E9322C180918C0090918D0062
:1009B00064E070E00E948A0D029709F099C0EFE0B0
:1009C000EE16F1040CF015C1023011050CF411C142
:1009D000093011050CF00DC1970153E0220F331FB0
:1009E0005A95E1F72E0D3F1DF901E00FF11FEE0FB3
:1009F000FF1FE653FE4F80819181892B09F0F9C0DA
:100A0000B80161507040F901E60FF71FEE0FFF1FAC
:100A1000E653FE4F80819181892B09F0EAC0A7013E
:100A20004F5F5F4FFA0193E0EE0FFF1F9A95E1F7DA
:100A3000E40FF51FE00FF11FEE0FFF1FE653FE4F0F
:100A400080819181892B09F0D4C097012E5F3F4F9F
:100A5000F901B3E0EE0FFF1FBA95E1F7E20FF31FC4
:100A6000E00FF11FEE0FFF1FE653FE4F80819181D3
:100A7000892B09F0BEC0F70193E0EE0FFF1F9A9596
:100A8000E1F7EE0DFF1DDF01A00FB11FAA0FBB1F85
:100A9000A653BE4F81E090E011969C938E93E60F93
:100AA000F71FEE0FFF1FE653FE4F91838083FA017D
:100AB00063E0EE0FFF1F6A95E1F7E40FF51FE00F0B
:100AC000F11FEE0FFF1FE653FE4F91838083F90164
:100AD00043E0EE0FFF1F4A95E1F7E20FF31FE00F2F
:100AE000F11FEE0FFF1FE653FE4F918380837EC000
:100AF00080918C0090918D0064E070E00E948A0DDE
:100B0000039709F076C0F1E1EF16F1040CF071C023
:100B1000033011050CF46DC0093011050CF069C0EB
:100B2000970193E0220F331F9A95E1F72E0D3F1D99
:100B3000F901E00FF11FEE0FFF1FE653FE4F80811A
:100B40009181892B09F055C0B80161507040F901BD
:100B5000E60FF71FEE0FFF1FE653FE4F80819181D6
:100B6000892B09F046C0A80142505040F901E40F1A
:100B7000F51FEE0FFF1FE653FE4F80819181892BF9
:100B8000C1F5C7010197DC01E3E0AA0FBB1FEA959D
:100B9000E1F7A80FB91FA00FB11FAA0FBB1FA653E3
:100BA000BE4F8D919C911197892B19F5F901020F78
:100BB000131F000F111F06531E4F81E090E0E80144
:100BC00099838883620F731F660F771F66537E4F6A
:100BD000EB0199838883E40FF51FEE0FFF1FE653A7
:100BE000FE4F9183808311969C938E9321E030E099
:100BF00002C020E030E0C901DF91CF911F910F9139
:100C0000FF90EF90DF90CF9008954130510519F497
:100C10000E94D30108954230510519F40E94AE009C
:100C200008954330510519F40E9465010895443038
:100C3000510519F40E94EC03089508950F931F9332
:100C4000CF93DF938C01EB014130510509F0ADC02A
:100C500080918C0090918D0083709070892B01F5AC
:100C6000D80173E0AA0FBB1F7A95E1F7A00FB11F5F
:100C7000FD01EC0FFD1FEE0FFF1FE653FE4F11822B
:100C80001082FE013197EA0FFB1FEE0FFF1FE653A4
:100C9000FE4F118210822196AC0FBD1F2197E5C136
:100CA00080918C0090918D0064E070E00E948A0D2C
:100CB0000197F1F4D80143E0AA0FBB1F4A95E1F771
:100CC000A00FB11FFD01EC0FFD1FEE0FFF1FE6533C
:100CD000FE4F11821082C8010197FC0123E0EE0F44
:100CE000FF1F2A95E1F7E80FF91FEC0FFD1F1FC04A
:100CF00080918C0090918D0064E070E00E948A0DDC
:100D0000029701F5D80173E0AA0FBB1F7A95E1F7AE
:100D1000A00FB11FFD01EC0FFD1FEE0FFF1FE653EB
:100D2000FE4F11821082FE013197EA0FFB1FEE0F7A
:100D3000FF1FE653FE4F118210822196AC0FBD1F9C
:100D4000219725C180918C0090918D0064E070E026
:100D50000E948A0D039709F0A1C1D80143E0AA0FB0
:100D6000BB1F4A95E1F7A00FB11FFD01EC0FFD1F5E
:100D7000EE0FFF1FE653FE4F11821082C80101974C
:100D8000FC0123E0EE0FFF1F2A95E1F7E80FF91FA2
:100D9000EC0FFD1FEE0FFF1FE653FE4F1182108276
:100DA0002197AC0FBD1F2196F2C04230510509F0CA
:100DB00053C080918C0090918D0080FD1FC0F80180
:100DC00083E0EE0FFF1F8A95E1F7E00FF11FDF01CF
:100DD000A60FB71FAA0FBB1FA653BE4F11961C929A
:100DE0001E922197DF01AC0FBD1FAA0FBB1FA65398
:100DF000BE4F11961C921E92229648C180918C0083
:100E000090918D0062E070E00E948A0D019709F0D8
:100E100045C1F80163E0EE0FFF1F6A95E1F7E00FAF
:100E2000F11FEC0FFD1FEE0FFF1FE653FE4F118267
:100E30001082C8010197FC0143E0EE0FFF1F4A95A5
:100E4000E1F7E80FF91FEC0FFD1FEE0FFF1FE65350
:100E5000FE4F11821082A2C04330510591F5DC0192
:100E600023E0AA0FBB1F2A95E1F7A80FB91FFD01C8
:100E7000E60FF71FEE0FFF1FE653FE4F11821082A1
:100E80009B012F5F3F4FA20FB31FAA0FBB1FA6539B
:100E9000BE4F11961C921E92C8010197FC01B3E04F
:100EA000EE0FFF1FBA95E1F7E80FF91FCE0FDF1F16
:100EB000CC0FDD1FC653DE4F19821882E20FF31FDD
:100EC000E7C04430510509F0E9C080918C00909151
:100ED0008D0083709070892B89F5D80173E0AA0F7B
:100EE000BB1F7A95E1F7A00FB11FFD01EC0FFD1FAD
:100EF000EE0FFF1FE653FE4F118210822196AC0FBA
:100F0000BD1F2197AA0FBB1FA653BE4F11961C925F
:100F10001E92C8010197FC0143E0EE0FFF1F4A95A6
:100F2000E1F7E80FF91FEC0FFD1FEE0FFF1FE6536F
:100F3000FE4F11821082C8010297A0C080918C00E0
:100F400090918D0064E070E00E948A0D019749F550
:100F5000D80123E0AA0FBB1F2A95E1F7A00FB11F0C
:100F6000FD01EC0FFD1FEE0FFF1FE653FE4F118238
:100F70001082FE013196EA0FFB1FEE0FFF1FE653B2
:100F8000FE4F118210822296AC0FBD1F2297AA0F2E
:100F9000BB1FA653BE4F11961C921E92C80101960C
:100FA0006DC080918C0090918D0064E070E00E9493
:100FB0008A0D029789F5D801E3E0AA0FBB1FEA95D5
:100FC000E1F7A00FB11FFD01EC0FFD1FEE0FFF1F9A
:100FD000E653FE4F118210822197AC0FBD1F219660
:100FE000AA0FBB1FA653BE4F11961C921E92C8019A
:100FF0000196FC0153E0EE0FFF1F5A95E1F7E80F51
:10100000F91FEC0FFD1FEE0FFF1FE653FE4F11827D
:101010001082C801029632C080918C0090918D00A0
:1010200064E070E00E948A0D0397C1F5D80133E0B7
:10103000AA0FBB1F3A95E1F7A00FB11FFD01EC0FFE
:10104000FD1FEE0FFF1FE653FE4F11821082FE01BF
:101050003197EA0FFB1FEE0FFF1FE653FE4F118281
:1010600010822297AC0FBD1F2296AA0FBB1FA6535A
:10107000BE4F11961C921E92C8010197FC01B3E06D
:10108000EE0FFF1FBA95E1F7E80FF91FEC0FFD1FF8
:10109000EE0FFF1FE653FE4F11821082DF91CF91BA
:1010A0001F910F910895AF92BF92CF92DF92EF926E
:1010B000FF920F931F93DF93CF93CDB7DEB7A09727
:1010C0000FB6F894DEBF0FBECDBFF8945E01089452
:1010D000A11CB11C7501A0E0B0E028E0C22ED12C0B
:1010E000119641E050E000E010E0BD0193E0660F92
:1010F000771F9A95E1F76A0F7B1FFB01E40FF51F3D
:10110000EE0FFF1FE653FE4F808191819601241B55
:10111000350B02C0880F991F2A95E2F7082B192B6F
:101120004F5F5F4F4930510541F7F701019311932C
:101130007F01A031B105A1F660E070E01CC01C91F8
:1011400021E030E0FA01EE0FFF1FE05AFF4F8081EF
:1011500091818BBB15BB2F5F3F4F2B303105B9F70A
:101160004F5F5F4F12964031510549F76F5F7F4FD8
:10117000643B710521F0D50140E050E0E0CF789468
:10118000A0960FB6F894DEBF0FBECDBFCF91DF9112
:101190001F910F91FF90EF90DF90CF90BF90AF9095
:1011A000089580919600909197000197A9F48091FD
:1011B000E2019091E301019709F44FC08091E401AD
:1011C0009091E501019709F448C08091E601909162
:1011D000E701019709F441C0809196009091970032
:1011E000029791F48091E2019091E3010197A9F1B6
:1011F0008091E4019091E501019779F18091E601F8
:101200009091E701019749F18091960090919700A4
:10121000039761F48091E4019091E5010197E9F071
:101220008091E6019091E7010197B9F080919600D5
:1012300090919700049719F020E030E010C0809161
:10124000E4019091E501019741F08091E6019091D0
:10125000E70120E030E0019711F421E030E0C9011E
:1012600008958091960090919700019709F04AC0E7
:1012700080918C0090918D0083709070892B31F457
:1012800080918200909183000297CCF180918C0034
:1012900090918D0064E070E00E948A0D9C01813085
:1012A000910541F4809182009091830018161906EF
:1012B0000CF0A3C080918C0090918D0064E070E0F0
:1012C0000E948A0D9C018230910539F48091820040
:1012D0009091830002970CF490C080918C009091C3
:1012E0008D0064E070E00E948A0D039709F0A0C0B1
:1012F000809182009091830002970CF099C082E067
:1013000090E051C020919600309197002230310535
:1013100019F580918C0090918D0080FD07C080911F
:1013200082009091830002970CF467C080918C003A
:1013300090918D0062E070E00E948A0D9C018130E6
:10134000910509F075C08091820090918300181674
:1013500019060CF46DC051C08091960090919700D1
:10136000039749F480918200909183001816190622
:101370000CF45EC016C0809196009091970004977F
:1013800009F056C080918C0090918D008370907010
:10139000892B71F4809182009091830018161906B0
:1013A0003CF081E090E09093830080938200089568
:1013B00080918C0090918D0064E070E00E948A0D15
:1013C0009C018130910539F48091820090918300D5
:1013D0001816190694F480918C0090918D0064E0A9
:1013E00070E00E948A0D9C018230910559F4809131
:1013F00082009091830002972CF430938300209315
:101400008200089580918C0090918D0064E070E0DE
:101410000E948A0D9C018330910551F480918200D5
:1014200090918300039724F43093830020938200EB
:1014300008958091960090919700019709F03DC022
:1014400080918C0090918D0083709070892B39F47D
:10145000809182009091830008970CF076C0809173
:101460008C0090918D0064E070E00E948A0D0197DD
:1014700039F4809182009091830008970CF065C048
:1014800080918C0090918D0064E070E00E948A0D44
:10149000029739F4809182009091830008970CF0B4
:1014A00054C080918C0090918D0064E070E00E94A7
:1014B0008A0D039709F08CC01DC080919600909111
:1014C00097000297F9F480918C0090918D0080FD37
:1014D00006C080918200909183000897B4F58091B6
:1014E0008C0090918D0062E070E00E948A0D01975F
:1014F00009F06EC0809182009091830009970CF4EE
:1015000067C049C08091960090919700039741F47D
:10151000809182009091830008970CF459C015C007
:101520008091960090919700049709F051C08091A6
:101530008C0090918D0083709070892B49F480917C
:1015400082009091830008971CF087E090E025C00E
:1015500080918C0090918D0064E070E00E948A0D73
:10156000019749F4809182009091830007971CF0C5
:1015700086E090E012C080918C0090918D0064E034
:1015800070E00E948A0D029769F480918200909128
:10159000830009973CF088E090E09093830080936B
:1015A0008200089580918C0090918D0064E070E03D
:1015B0000E948A0D039761F48091820090918300CC
:1015C000099734F088E090E0909383008093820044
:1015D0000895BF92CF92DF92EF92FF920F931F93E5
:1015E000CF93DF9300E010E0C0E1D0E028E0C22E0E
:1015F000D12CBB24B39498ECE92EF12C6BC0FB01E9
:10160000E40FF51FEE0FFF1FE653FE4F808191811F
:101610009601241B350B02C0880F991F2A95E2F70B
:10162000A82BB92B4F5F5F4F4930510541F7AF3FB2
:10163000B10509F04BC0AE012BC021E030E0CA017A
:101640000196DA01F3E0AA0FBB1FFA95E1F7A40FA8
:10165000B51FBC01E3E0660F771FEA95E1F7680F5D
:10166000791FFD01E20FF31FEE0FFF1FE653FE4F40
:1016700080819181FB01E20FF31FEE0FFF1FE65304
:10168000FE4F918380832F5F3F4F2930310549F70B
:10169000415050401416150684F281E090E0FC01A0
:1016A000EE0FFF1FE452FE4F118210820196893027
:1016B0009105A9F7B2BA84EF91E0F7013197F1F7FC
:1016C0000197D9F7219612BA01E010E021971C1674
:1016D0001D066CF441E050E0A0E0B0E0BE0133E054
:1016E000660F771F3A95E1F76C0F7D1F88CFC80111
:1016F000DF91CF911F910F91FF90EF90DF90CF90EE
:10170000BF90089580EE8BBF8AE085BF78940895DE
:101710001F920F920FB60F9211242F933F934F9366
:101720005F936F937F938F939F93AF93BF93EF9349
:10173000FF93809180009091810060918200709170
:10174000830040919600509197000E941E06809160
:10175000820090918300909387008093860080910F
:101760008200909183000196909383008093820081
:10177000809180009091810060918200709183003F
:1017800040919600509197000E940506892BB1F474
:1017900080918600909187009093830080938200CF
:1017A000809180009091810060918200709183000F
:1017B00040919600509197000E940506FF91EF918D
:1017C000BF91AF919F918F917F916F915F914F9159
:1017D0003F912F910F900FBE0F901F9018951F9261
:1017E0000F920FB60F9211242F933F934F935F9355
:1017F0006F937F938F939F93AF93BF93EF93FF93D9
:1018000080918000909181006091820070918300AE
:1018100040919600509197000E941E068091820090
:10182000909183009093870080938600809182003E
:101830009091830001979093830080938200809120
:1018400080009091810060918200709183004091AE
:101850009600509197000E940506892BB1F4809163
:1018600086009091870090938300809382008091FE
:10187000800090918100609182007091830040917E
:101880009600509197000E940506FF91EF91BF913D
:10189000AF919F918F917F916F915F914F913F9108
:1018A0002F910F900FBE0F901F9018951F920F92BF
:1018B0000FB60F9211242F933F934F935F936F9323
:1018C0007F938F939F93AF93BF93EF93FF938091F9
:1018D000800090918100609182007091830040911E
:1018E0009600509197000E941E0680918C00909166
:1018F0008D00019664E070E00E948A0D90938D0047
:1019000080938C0080918000909181006091820092
:101910007091830040919600509197000E940506B7
:10192000FF91EF91BF91AF919F918F917F916F91B7
:101930005F914F913F912F910F900FBE0F901F908D
:1019400018950E94D108019781F42AEC31E0C90171
:1019500060E070E042E351E00E94120E0E945308E2
:1019600010929300109292000895809180009091BF
:101970008100019779F40E94020E64E070E00E94F9
:101980008A0D0196909397008093960010928D0097
:1019900010928C0080918000909181006091820073
:1019A0007091830040919600509197000E94050627
:1019B000892BA1F480918400909185006091820030
:1019C0007091830040919600509197000E94050607
:1019D00081E090E090938F0080938E008091800052
:1019E0009091810090938500809384000E94530819
:1019F00080918E0090918F00892BC1F4809180009E
:101A000090918100609182007091830040919600D6
:101A1000509197000E941E06809180009091810055
:101A20000196909381008093800010C081E090E047
:101A3000909381008093800084E090E090938300F5
:101A40008093820010928F0010928E000E94E90A0B
:101A5000019711F40E9453080895FF920F931F936A
:101A6000CF93DF9317BA8FEF8ABB81E181BB2AEC5A
:101A700031E0C90160E070E042E351E00E94120EE3
:101A8000E8E9F0E082E391E0DF019C011D92215042
:101A90003040E1F780EE8BBF8AE085BF7894789480
:101AA000C1E0D0E030E1F32E08EC10E0809190002E
:101AB00090919100019711F580919200909193007F
:101AC0008130910519F40E94A10CF0CF892BB1F45B
:101AD0008091940090919500892B69F4F2BA84EF7B
:101AE00091E0F8013197F1F70197D9F712BAD09345
:101AF0009500C0939400B09BD9CF03C086B38130CA
:101B0000A9F6D0939100C0939000D0939300C09316
:101B10009200CCCF97FB092E07260AD077FD04D080
:101B20000CD006D000201AF4709561957F4F08956F
:101B3000F6F7909581959F4F0895AA1BBB1B51E125
:101B400007C0AA1FBB1FA617B70710F0A61BB70B2D
:101B5000881F991F5A95A9F780959095BC01CD01D2
:101B60000895A0E0B0E0E7EBFDE00C945B0EEC0123
:101B7000A880B980CA80DB80A114B104C104D1045B
:101B800041F484E2A82E89EDB82E8BE5C82E87E0BB
:101B9000D82EC601B5012DE133EF41E050E00E949F
:101BA000380E27EA31E440E050E00E94190E7B0134
:101BB0008C01C601B5012DE133EF41E050E00E94F8
:101BC000380ECA01B9012CEE34EF4FEF5FEF0E94DF
:101BD000190E6E0D7F1D801F911F97FF04C061506D
:101BE000704080409048688379838A839B839B01FF
:101BF0003F77C901CDB7DEB7EAE00C94770E0E94BB
:101C0000B10D089588E890E00E94B10D0895A0E01C
:101C1000B0E08093880090938900A0938A00B093ED
:101C20008B000895DC0101C06D9341505040E0F7F6
:101C30000895629FD001739FF001829FE00DF11D16
:101C4000649FE00DF11D929FF00D839FF00D749F36
:101C5000F00D659FF00D9927729FB00DE11DF91FE2
:101C6000639FB00DE11DF91FBD01CF01112408953F
:101C700097FB092E05260ED057FD04D04BD00AD075
:101C8000001C38F450954095309521953F4F4F4FAB
:101C90005F4F0895F6F790958095709561957F4F09
:101CA0008F4F9F4F08952F923F924F925F926F9266
:101CB0007F928F929F92AF92BF92CF92DF92EF92DC
:101CC000FF920F931F93CF93DF93CDB7DEB7CA1B5D
:101CD000DB0B0FB6F894DEBF0FBECDBF09942A8888
:101CE000398848885F846E847D848C849B84AA8430
:101CF000B984C884DF80EE80FD800C811B81AA81BD
:101D0000B981CE0FD11D0FB6F894DEBF0FBECDBF87
:101D1000ED010895A1E21A2EAA1BBB1BFD010DC007
:101D2000AA1FBB1FEE1FFF1FA217B307E407F5078B
:101D300020F0A21BB30BE40BF50B661F771F881F67
:101D4000991F1A9469F760957095809590959B01FD
:0C1D5000AC01BD01CF010895F894FFCF55
:101D5C00080009000A000B000C000D000E000F001B
:101D6C0080009000A000B000C000D000E000F000A7
:0C1D7C0001000400010004000100000050
:00000001FF
